:100000000C94E0020C941A030C941A030C941A0337
:100010000C941A030C941A030C941A030C941A03EC
:100020000C941A030C941A030C948B220C946723DF
:100030000C9440220C941A030C941A030C941A0387
:100040000C941A030C941A030C941A030C941A03BC
:100050000C941A030C9467220C941A030C941A0340
:100060000C941A030C941A030C941A030C941A039C
:100070000C941A030C941A030C941A030C941A038C
:100080000C941A030C941A030C941A030C941A037C
:100090000C941A030C941A0300010000FF100400D2
:1000A00000FF35020000FF54020000FFFF000000C7
:1000B0000037010000FFFF0000000005010902A158
:1000C0000185020901A1000509190129081500256A
:1000D0000195087501810205010930093115812555
:1000E0007F95027508810609381581257F95017570
:1000F000088106050C0A38021581257F95017508CF
:100100008106C0C005010980A101850319012AB734
:1001100000150126B700950175108100C0050C0976
:1001200001A101850419012AA002150126A002954A
:100130000175108100C005010906A101050719E03C
:1001400029E71500250195087501810295017508BB
:1001500081010507190029FF150026FF0095067586
:100160000881000508190129051500250195057567
:10017000019102950175039101C009023B00020142
:1001800000A0FA0904000001030101000921110186
:100190000001224400070581030800010904010051
:1001A0000103000000092111010001227B00070565
:1001B0008203200001120100020000000854415493
:1001C000440001010200011803450073006B00693F
:1001D00000660075006C006C007000610064000037
:1001E000000A03450073006B006900000004030966
:1001F000042223252628292A2C2D2F303233353668
:10020000383A3B3D3E4042434547494A4C4E5051A7
:10021000535557595A5C5E6062646668696B6D6FCE
:1002200071737577797B7D7F81838587898A8C8ED1
:1002300090929496989A9C9E9FA1A3A5A7A8AAACD9
:10024000AEAFB1B3B4B6B8B9BBBCBEBFC1C2C3C513
:10025000C6C7C9CACBCCCDCED0D1D2D2D3D4D5D6B5
:10026000D7D7D8D9D9DADADBDBDBDCDCDCDCDCDDE8
:10027000DDDDDDDCDCDCDCDCDBDBDBDADAD9D9D8CC
:10028000D7D7D6D5D4D3D2D2D1D0CECDCCCBCAC964
:10029000C7C6C5C3C2C1BFBEBCBBB9B8B6B4B3B193
:1002A000AFAEACAAA8A7A5A3A19F9E9C9A9896942E
:1002B00092908E8C8A89878583817F7D7B79777503
:1002C00073716F6D6B6968666462605E5C5A5957E2
:1002D000555351504E4C4A4947454342403E3D3BA1
:1002E0003A3836353332302F2D2C2A29282625232B
:1002F00022FFAA7F55400001010101010101010116
:1003000002020202020202020203030303030303C6
:100310000304040404040404050505050506060693
:100320000606070707070708080808090909090A50
:100330000A0A0B0B0B0C0C0C0D0D0D0E0E0E0F0FF5
:100340000F10101111111212131314141515161683
:100350001717181819191A1A1B1B1C1D1D1E1E1FF2
:100360002020212222232424252626272829292A41
:100370002B2C2D2D2E2F3031323233343536373869
:10038000393A3B3C3D3E3F40414243444546474865
:10039000494A4C4D4E4F50515354555658595A5B3B
:1003A0005D5E5F616264656668696B6C6D6F7072DB
:1003B000737577787A7B7D7E8082838587888A8C47
:1003C0008E8F91939596989A9C9EA0A2A3A5A7A97B
:1003D000ABADAFB1B3B5B7BABCBEC0C2C4C6C9CB72
:1003E000CDCFD1D4D6D8DBDDDFE2E4E7E9EBEEF028
:1003F000F3F5F8FAFDFFB100980000001E0F057F2D
:100400003F1F643214643214783C1E1E140A05A681
:100410000029003A003B003C003D003E003F004008
:100420000041004200430044004500460049004AA4
:10043000004D00437E35001E001F002000210022D9
:1004400000230024002500260027002D002E002A6E
:1004500000A8004C00480065002B0014001A00089A
:1004600000150017001C0018000C00120013002FCC
:1004700000300031004B004B00AB00427E390000E1
:100480000004001600070009000A000B000D000E12
:10049000000F003300340028004E004E00AC004135
:1004A0007EE10000001D001B000600190005001180
:1004B000001000360037003800E500000000005250
:1004C0000000000041E000E300E200000000000046
:1004D000002C00000000000000E600E700E400003F
:1004E00000500051004F00257827780100010001DD
:1004F00000010001000100010001000100010001F4
:10050000000100010001000100017C26782878012B
:1005100000010001000100010001000100010001D3
:1005200000010001000100010001000100010023A1
:10053000780100010001000100010001000100013B
:1005400000010001000100010001000100010001A3
:1005500000010024780100000001000100010001F9
:100560000001000100010001000100010001000183
:1005700000010001000100217801000000010001DC
:100580000001000100010001000100010001000163
:100590000001000000000001000000010001000156
:1005A0000001000000000000000100000000000049
:1005B0000001000100010000000100010001000035
:1005C00011241FBECFEFD0E2DEBFCDBF04B603FEC5
:1005D00018C080910D0690910E06A0910F06B09163
:1005E00010068730904BA740B04B59F410920D067F
:1005F00010920E0610920F0610921006E0E0F0EF37
:10060000099526E0ACEAB1E001C01D92AD30B20719
:10061000E1F711E0A0E0B1E0E6E3FCE400E00BBFAD
:1006200002C007900D92AC3AB107D9F70E94E21CC4
:100630000C94B3250C94000020910C06009749F00F
:1006400081FF07C0226020930C0621E02093090659
:1006500008952D7FF8CF90910C0681FF07C091601F
:1006600090930C0681E08093090608959E7FF8CF51
:100670009093C1058093C00508950E941C03909338
:10068000C3058093C205089521E030E002C0220F27
:10069000331F8A95E2F78091C2059091C305822BA2
:1006A000932B0E943D03089521E030E002C0220F09
:1006B000331F8A95E2F7209530958091C20590917D
:1006C000C305822393230E943D030895963098F535
:1006D000823188F5E82FF0E082E1989FE00DF11D6E
:1006E00011248E2F877041E001C0440F8A95EAF7EC
:1006F00083E0F695E7958A95E1F7EE0FFF1FEE0F81
:10070000FF1FEE58FA4F20E030E070E05191DF011A
:100710001197CB01022E02C0969587950A94E2F7B5
:10072000817081958527842385278C932F5F3F4F88
:100730002430310559F70895963078F5823168F5FF
:10074000E82FF0E082E1989FE00DF11D11249E2F2B
:10075000977083E0F695E7958A95E1F7EE0FFF1F16
:10076000EE0FFF1FEE58FA4F40E050E080E021917D
:1007700030E0092E02C0369527950A94E2F72170E1
:100780003327042E01C0220F0A94EAF7822B4F5F11
:100790005F4F4430510559F7089580E008958091E6
:1007A000C9059091C805981301C008958F5F87709F
:1007B000FACF9091C405809589238093C405282F92
:1007C000277021110DC0891759F09091C60592FF2D
:1007D00007C08695869586950E9454031092C4059D
:1007E0000895982F90958091BD0589238093BD052C
:1007F00008957630B8F46231A8F48230B0F4E62F70
:10080000F0E092E1799FE00DF11D11249CE6899FB3
:10081000E00DF11D1124EE0FFF1FE15FFB4F8591ED
:100820009491089580E090E0089581E0FCCF803EAF
:100830009105D1F1C8F48133910509F47FC048F4E2
:100840008932910509F46FC08A32910509F47DC09F
:10085000089589339105E1F082389105C9F0853317
:10086000910509F45BC00895843E9105D1F148F4E7
:10087000823E910531F1833E910541F181EE90E098
:100880000895863E9105C1F1873E9105E1F10895F5
:100890002091C5052370211165C02091C60523FF55
:1008A00014C089E290E008952091C50520FD43C061
:1008B0003091C60530FF09C024FF4EC080E090E0B3
:1008C00008952091C50522FDF7CF08952091C50513
:1008D00022FD45C03091C60530FD44C024FFF5CF50
:1008E000EDCF2091C60521FFF0CF8091C50584FD95
:1008F000E5CF87EE90E008952091C50523FFE5CF71
:1009000024FDDCCFF6CF2091C50523FD2EC030910C
:10091000C60531FFE3CF84EE90E008952091C50530
:1009200025FFD3CFBECF2091C50525FD21C0209145
:10093000C60523FFCACF89E390E008952091C5053D
:1009400026FFC3CF8AE290E008952091C50526FFD7
:10095000BCCF81E390E0089583EE90E0089582EEAD
:1009600090E0089580EE90E0089586EE90E008957E
:1009700085E390E0AACF9091C50592FF10C041E0B9
:10098000282F2471243009F040E031E0282F28710D
:10099000283009F030E0431711F02CE0822793FF54
:1009A00010C041E0282F2471243109F040E031E0EB
:1009B000282F2871283109F030E0431711F02CE07E
:1009C00082273091C60530FF10C051E0282F2171D9
:1009D000213009F050E041E0282F2871283009F03B
:1009E00040E0541711F029E0822731FF10C041E0A8
:1009F000282F2171213109F040E031E0282F2871A2
:100A0000283109F030E0431711F029E0822794FDE6
:100A1000877E08951F93CF93DF930E941704EC0104
:100A2000811522E5920708F053C0811540E594072F
:100A300008F0DDC0803E9105F8F48D3C910508F08A
:100A4000AEC0883A910580F4853A910508F099C0C6
:100A50008130910521F00497813A910550F4CE013F
:100A6000DF91CF911F910895885A91094B9708F40F
:100A70008BC0C0E0D0E0F3CF811550E49507F8F4C7
:100A8000C11580E2D80708F0CBC0C83ED10538F3C5
:100A9000CE019A9581159F4160F78D2F0E94BB046E
:100AA000182FCE0199270E941704212F30E0322FF2
:100AB0002227E901CC27DF71C82BD92BD0CF99276A
:100AC0000E941704CC27DF70C82BD92BD06AC7CF60
:100AD000803842E59407C8F5803652E5950708F05E
:100AE00067C0C03482E5D807B0F08C2F8695869514
:100AF000877020E2829FC0011124C37021E030E0A2
:100B0000A90102C0440F551FCA95E2F7EA01C82B9C
:100B1000D92BDC68A4CFC03252E5D50708F041C01C
:100B20008C2F8695869520E2829FC0011124C37088
:100B300021E030E0A90102C0440F551FCA95E2F739
:100B4000EA01C82BD92BDD688ACF803C52E5950796
:100B500060F48F71C03AD24508F03FC090E0982F02
:100B60008827EC01C46FD06A7ACF805C9245809769
:100B700008F07FCFDC2FCC27CC27DF71C06FD06A85
:100B80006ECFA497D0646BCFC85AD0E0CC0FDD1FD6
:100B9000CB58DE4F0990D881C02DD46460CFD0658A
:100BA0005ECFCF71D0E0DC2FCC27C16FD06A57CF9A
:100BB00086958695877020E2829FC0011124C370BC
:100BC00021E030E0A90102C0440F551FCA95E2F7A9
:100BD000EA01C82BD92BDA6842CF0E94BB04C82F88
:100BE000D0E0DC2FCC27CC27DF71D06238CF8F71DB
:100BF0000E94BB0465E0D695C7956A95E1F7CF7072
:100C0000D0E0DC2FCC27282F30E084FF05C054E053
:100C1000220F331F5A95E1F7C22BD32BD0691FCF78
:100C20008D2F8F710E94BB04182FCE0199270E942F
:100C30001704212F30E0322F222722273F71282B43
:100C4000392BE901D2CFA0E0B0E0E9E2F6E00C9464
:100C500017248C01E090C205F090C3058091C00577
:100C60009091C105E82AF92ACFE0D0E0CC24C394C2
:100C7000D12CC6010C2E02C0880F991F0A94E2F7EE
:100C80008E219F21892B49F4219798F7B12C8B2D28
:100C9000CDB7DEB7E9E00C943324BC2EB8018C2F1D
:100CA0000E94F9030E940A05019771F3F0CF0F9398
:100CB0001F93CF93FC01858100811181882391F0DE
:100CC000662381F0C8010E942306C82F682FC8013F
:100CD0000E946603B8018C2F0E94F903CF911F91E7
:100CE0000F910895C8010E949C03C82FF3CFCF93A2
:100CF000DF93D82FC92F0E9423066D2F7C2F0E94CF
:100D0000F9030E940A05DF91CF910895FC018481C7
:100D10008823A1F0808191810E947706282F9295E7
:100D20009F70963091F060F4925F9F70923030F433
:100D300081E0203F79F030F4283E30F080E004C0BC
:100D40009A5FF3CF243FD1F7089581E0283E18F051
:100D5000213FF9CF0895089580E00895F894E82F91
:100D6000E295EF70F0E041A18F7021E030E0B90131
:100D700002C0660F771F8A95E2F7CB01962F9095F8
:100D8000942391A392A1892B82A378940895089526
:100D9000A0E0B0E0EEECF6E00C941624E90149374F
:100DA00008F048E7E42FF0E0EA50FD4F61110BC076
:100DB000E4919E2F8E2F8983E8839A83CDB7DEB787
:100DC000EAE00C943224282F30E0062F10E0F49152
:100DD000EF2F86E0829F6001839FD00C1124EE24C8
:100DE000EA94F12CC601B7010E94CE23220F331FD3
:100DF00045E5469FC001479F900D1124281B390BE4
:100E0000822F880F280FC701801B910BF89FA0012C
:100E1000F99F500D1124952F209F5001219FB00C58
:100E20001124AB2CBB24D701AA19BB095D01FA9D83
:100E3000D001FB9DB00D11248B2F5701A21AB108D0
:100E40009501209F5001219FB00C309FB00C1124C0
:100E5000AB2CBB24EA18FB08FE9D9001FF9D300DD2
:100E6000112463307105C9F01CEFC11613E0D106DF
:100E700050F46130710509F49ECF6230710589F03C
:100E80008E2FE32F98CF6430710571F066307105B5
:100E9000B9F3E52F9B2F8F2F8ECFEB2F852F9F2F11
:100EA0008ACF852F932F87CF832FE52FF8CF80917F
:100EB000B505843060F4837084608093B5058091BB
:100EC000B805893718F088E78093B8050895883AFF
:100ED000B0F38370846AF1CFFA01882311F0099589
:100EE0000895FB01FCCF90E06623E9F0805E9E4F01
:100EF000FC0180818F3FB1F0E82FE295EF70F0E0C8
:100F000041A18F7021E030E0B90102C0660F771F68
:100F10008A95E2F7CB01962F9095942391A392A105
:100F2000892B82A30895835E9E4FE2CF90E06623D3
:100F3000A9F0805E9E4FFC0120812F3F91F0E22FAF
:100F4000E295EF70E05EF0E0808190E02F7002C0EB
:100F5000959587952A95E2F781700895835E9E4F57
:100F6000EACF80E00895282F35EB2303C001112438
:100F700097FF04C080589109892F089580589F4F8A
:100F8000FBCF8091AC0580FD14C081FD14C082FDB3
:100F900016C08091AB05882381F08E3180F420E566
:100FA000829FC00111246EE170E00E94E223862F2F
:100FB000089584E1089588E2089588E0089580E521
:100FC00008958091AC0580FD17C081FD17C082FD9A
:100FD00019C08091AA05882399F0883298F428E0F6
:100FE000829FC001112468E270E00E94E223611533
:100FF000710551F0862F089562E0FCCF64E0FACFCE
:1010000061E0F8CF68E0F6CF81E00895E0916805EF
:10101000F0916905309729F00190F081E02D099554
:10102000089580E00895A3E0B0E0E9E1F8E00C94D1
:101030001E249C018091D6019091D70182179307BD
:10104000A1F03093D7012093D601E0916805F0918B
:101050006905309751F083E089833B832A830084BC
:10106000F185E02DCE01019609952396E2E00C94DE
:101070003A24A3E0B0E0EFE3F8E00C941E249C01D6
:101080008091D4019091D50182179307A1F03093FC
:10109000D5012093D401E0916805F091690530975E
:1010A00051F084E089833B832A830084F185E02D1D
:1010B000CE01019609952396E2E00C943A249C0116
:1010C000FC0132968FEF90E04191461751F08F3F2F
:1010D00019F4411101C0892F9F5F9630A9F78F3F06
:1010E00009F40895280F311D87FD3A95F9016283AF
:1010F00008959C01FC013296285F3F4F8191861331
:1011000003C0DF0111971C92E217F307B9F70895A6
:101110002FB7F8948091D0019091D101A091D20184
:10112000B091D3012FBF08950E9488082091AF0588
:101130003091B005232B222321F0809363059093F7
:1011400064052091B1053091B205232B222321F0B3
:101150008093610590936205E0916805F0916905BF
:10116000309749F082E08093AD050680F781E02D4D
:101170008DEA95E0099508952091AF059091B2050B
:101180003091B105662309F45AC04091B005242B73
:10119000292B232B222331F098E09093AB0591E08B
:1011A0009093AA058D3C41F40E94C10781958093DC
:1011B000B0050E9494080895E2E3E80FE231C8F711
:1011C000F0E0EB54FA4D0C94F6230E94C107EFCFE8
:1011D0000E94C10781958093AF05EBCF0E94C107A4
:1011E000FACF0E94E1078093B105E3CF0E94E107A7
:1011F0008195F9CF0E94E10781958093B205D9CFFF
:101200000E94E107FACF815D990B21E030E001C037
:10121000220F8A95EAF78091AE05822B8093AE0566
:10122000C8CF8091AC0581608093AC05C2CF80911E
:10123000AC058260F9CF8091AC058460F5CF8D3C20
:1012400059F48091B00587FF0DC01092B00522239C
:1012500059F41092AB0508C08E3C81F48091B00522
:1012600018169CF3222381F08091B1059091B2056C
:10127000892B81119ECF1092AA059BCF8F3C41F400
:1012800027FFF0CF1092AF058091B0058823E0CF03
:10129000803D19F41216B4F3E5CF893D29F41316F5
:1012A0000CF71092B105DECF8A3D19F437FFDACF83
:1012B000F8CF8B3D29F497FFD5CF1092B205D2CF4E
:1012C0008C3D19F41916CCF3CDCF9FE2980F9830CE
:1012D00090F4815D990B41E050E0BA0102C0660FC5
:1012E000771F8A95E2F7CB0180959091AE0589230F
:1012F0008093AE05B7CF8D3D31F48091AC058E7FE4
:101300008093AC05AFCF8E3D21F48091AC058D7FED
:10131000F7CF8F3D09F0A6CF8091AC058B7FF0CF42
:10132000A4E0B0E0E6E9F9E00C941E248FB7F8944D
:101330002091D0013091D1014091D2015091D3013F
:1013400029833A834B835C838FBF69817A818B8148
:101350009C812496E2E00C943A249C014FB7F894C7
:101360008091D0019091D101A091D201B091D3018F
:101370004FBF821B930B08958091CF01089508956C
:10138000FC019B018091C5019091C60186179707CA
:1013900040F0672B29F48091E8008E778093E80075
:1013A000C90140E0009741F4411106C08091E80076
:1013B00082FF2FC080E00895209119052223A9F112
:1013C0002530A9F12091E80023FD2DC02091E800EF
:1013D00022FDECCF2091E80020FFE4CF2091F20025
:1013E0003091F300009719F02830310558F041E0B2
:1013F0002830310509F040E02091E8002E77209355
:10140000E800D0CF41914093F10001972F5F3F4F0B
:10141000E9CF80911905882341F0853041F0809112
:10142000E80083FFC3CF81E0089582E0089583E060
:1014300008958091BF0187FF13C08091E80082FF6B
:1014400006C08091E8008B778093E80004C080910B
:1014500019058111F2CF0895809119058823D9F3D8
:101460008091E80080FFF8CF8091E8008E77ECCF84
:101470002091E4003091E50095E6A9018091EC000F
:101480008170882331F08091E80080FF06C080E001
:1014900008952091E80022FD1BC080911905882342
:1014A00091F0853091F08091EB0085FD10C0209186
:1014B000E4003091E5004217530701F39150911178
:1014C000DCCF84E0089582E0089583E0089581E010
:1014D0000895E8EDF0E080818C7F80831092E20037
:1014E0001092DA001092E100A0EEB0E08C918160E1
:1014F0008C9380818F77808319BCA7EDB0E08C91AD
:101500008E7F8C9380818F7E80831092BE010895A0
:10151000982FE42FE2709093E900891308C0762F8A
:10152000242F50E0E11111C091E0980FF4CF709199
:10153000EC002091ED005091F00021FD06C09F5F6E
:10154000973049F78093E90008953091EB003E7F92
:101550003093EB003091ED003D7F3093ED00309102
:10156000EB0031603093EB007093EC002093ED00C2
:101570005093F0002091EE0027FDE1CF0895A0E008
:10158000B0E0E5ECFAE00C941824C8EDD0E08881D6
:101590008F7E8883E7EDF0E080818160808381E049
:1015A0008093BE0188818C7F888302EE10E0D80191
:1015B0001C921092DA0081EEC82ED12CD6011C921A
:1015C00088818F77888388818068888388818F7DF0
:1015D000888380818068808319BC109219051092DD
:1015E000BD01109218051092BC0190EEE92EF12C6D
:1015F000F70180818B7F808388818160888342E0CE
:1016000060E080E00E94880AD6018C918E7F8C93E6
:10161000F801808181608083808188608083D70128
:101620008C918E7F8C93888180618883CDB7DEB763
:10163000E8E00C943424E091C9059091C80527E0B6
:10164000E91302C080E00895AE2FB0E02E9FF001B4
:101650001124E653FA4F3181361306C03081381316
:1016600003C03581341304C0FD013196E770E8CF23
:1016700081E008959C01AB01509A6BB16E7F7BB104
:101680007160EFB7F894CA01880F991F840F951FF6
:10169000820F931F8217930741F4EFBF8FE594E009
:1016A0000197F1F700C000000895D9014D919D0107
:1016B00058E07BB9000000C047FF6BB9440F000041
:1016C00000C000C000C06BB900C05A9591F7E2CFCE
:1016D00081E08093E00080E28093D8001092C900FE
:1016E0008FE19EE40197F1F700C0000087E090EBE6
:1016F000DC0180930D0690930E06A0930F06B09325
:10170000100688E19CE00FB6F894A89580936000DD
:101710000FBE90936000FFCF0F931F93CF93DF9383
:10172000EB018A0190911905943079F58093E900D5
:101730008FEF9091E80095FD07C095ED9A95F1F730
:10174000000081508111F5CF8091E80085FF1DC018
:101750000E94380A811114C08091E80085FD06C0FE
:101760008091E8008E778093E800F2CF88818093A3
:10177000F100015011090115110511F02196ECCF6E
:101780008091E8008E778093E800DF91CF911F91E0
:101790000F910895CF93DF93D82FC92F48E050E0E1
:1017A000682F792F81E00E948C0B88E0ED2FFC2FB1
:1017B000A7ECB1E001900D928A95E1F7DF91CF910E
:1017C0000895BC0146E050E082E00E948C0B089531
:1017D000BC0143E050E082E00E948C0B08959091A0
:1017E000C60592FB222720F9281779F080FB92F991
:1017F0009093C6056091C5057091C60584E090E0A0
:101800000E943A2582E00E94D90308958091BD0587
:101810009091C705892B4091BE05442389F090E043
:1018200020EB31E0F90150812F5F3F4F51119F5F55
:1018300051E0263B3507B1F791111092BE05842B7C
:101840008093AE0148E050E06AE675E08EEA91E0F0
:101850000E94EB24892BA9F088E0EEEAF1E0AAE6E9
:10186000B5E001900D928A95E1F7E0916805F0915D
:101870006905309731F00280F381E02D8EEA91E026
:1018800009950895CF931092BD05C6E0E0EBF1E015
:10189000DF018C2F1D928A95E9F780E090E00E948D
:1018A000130880E090E00E9439081092C7050E945A
:1018B000060CEDEAF5E0DF011D92CA95E9F71092FA
:1018C000AB051092AA051092AC050E949408CF9126
:1018D00008950E94420C2FEF84E39CE02150804049
:1018E0009040E1F700C0000088E19CE00FB6F8945A
:1018F000A895809360000FBE90936000FFCFAAE28E
:10190000B0E0E5E8FCE00C941D248FEB91E0FC01D5
:1019100001962091F100208321E0873C9207B9F7DE
:101920008091C001893009F456C0C8F4823009F4AE
:10193000B2C0833009F481C0813071F18091E80038
:1019400083FFE6C08091BF019091C0019A3008F0FA
:10195000DFC0E92FF0E0E953FA4D0C94F6238A300A
:1019600009F488C08B3051F78091BF01813231F783
:101970008091C3019091C401892B01F78091E80007
:10198000877F8093E8000E94190A8091C1018093AB
:1019900004010E94420CD2CF8091BF01813A71F6BE
:1019A0008091E800877F8093E8008091C301909147
:1019B000C401892B61F060E080E090E070E00E945B
:1019C000C0098091E8008B778093E800B7CF68E08A
:1019D00087EC91E0F3CF8091BF01813209F0AECF67
:1019E0008091C3019091C401029708F0A7CF809124
:1019F000E800877F8093E8008091E80082FF18C0AC
:101A00008091F2009091F300029731F48091F100FF
:101A1000813011F0863021F48091F1008093CF0164
:101A20008091E8008B778093E8000E94190A86CFA6
:101A3000809119058111E0CF81CF8091BF01813A5A
:101A400009F07CCF8091C3019091C401892B09F0EA
:101A500075CF8091E800877F8093E8008091E8004F
:101A600080FFFCCF809104018093F1008091E80019
:101A70008E77D9CF8091BF01813209F05FCF8091FD
:101A8000E800877F8093E8000E94190A8091C201D4
:101A90008093BB0153CF8091BF01813A09F04ECFB3
:101AA0008091E800877F8093E8008091E80080FFC4
:101AB000FCCF8091BB01D8CF803889F0823841F5C6
:101AC0008091C3018F70873018F58093E900809171
:101AD000EB0085FB882780F91092E90006C0809111
:101AE000BC0190911805911182609091E800977F58
:101AF0009093E8008093F1001092F1008091E8004B
:101B00008E7723C0811116C08091C101813011F1FF
:101B10008091E80083FF0AC08091E800877F80936E
:101B2000E8008091EB0080628093EB00AA96E3E0EE
:101B30000C943924823061F78091C101882389F0A7
:101B40001092E9008091E800877F8093E8000E946E
:101B5000190ADECF81E0933009F080E08093180508
:101B6000EFCF8091C3018F702FEF280F263080F6C2
:101B70008093E9002091EB0020FFE2CF933031F415
:101B80008091EB0080628093EB00DACF9091EB00C4
:101B900090619093EB0021E030E0A90102C0440F76
:101BA000551F8A95E2F74093EA001092EA0080916F
:101BB000EB008860E8CF8111ABCF1091C1011F7796
:101BC0008091E3008078812B8093E3008091E8008E
:101BD000877F8093E8000E94190A8091E80080FFC7
:101BE000FCCF8091E30080688093E30083E01111D3
:101BF00001C082E0809319058BCF8058823008F0B5
:101C000087CF4091C1015091C2014C3D83E05807FC
:101C100099F583E08A838AE289834FB7F894DE01DD
:101C2000139620E03EE051E2E32FF0E0509357009E
:101C3000849120FF03C082958F703F5F8F708A3040
:101C4000C8F0895C90E08D939D932F5F243161F7FC
:101C50004FBF8091E800877F8093E8006AE270E0E0
:101C6000CE0101960E94C0098091E8008B77809395
:101C7000E8004ECF805DE6CF2091C3013091C401D2
:101C8000852F99278330910509F160F48130910502
:101C900009F472C0029709F03BCF8BE390E0EAE7CA
:101CA000F1E029C08132910509F45AC0829709F008
:101CB0002FCF2115310509F469C02130310509F014
:101CC00027CF8BE790E0EBEBF0E015C0CA01992736
:101CD0004130B1F18230910509F43AC0892B09F005
:101CE00017CFEDEEF1E0E4918E2F90E0EDEEF1E014
:101CF000009709F40DCF2091E800277F2093E8009A
:101D00002091C5013091C6018217930708F49C0108
:101D100040E02115310509F03EC041113CC08091E1
:101D2000E80082FDA1CF80911905882309F49CCF9A
:101D3000853009F499CF8091E80083FFF0CF94CFEC
:101D4000E1EEF1E0E4918E2F90E0E1EEF1E0D0CF12
:101D5000E7ECF1E0E4918E2F90E0E7ECF1E0C8CF02
:101D60002115310571F02130310509F0D1CE89E01E
:101D700090E0E5EAF1E0BFCF82E190E0E5EBF1E051
:101D8000BACF89E090E0ECE8F1E0B5CF84E490E0F0
:101D9000E6E3F1E0B0CF80911905882309F464CF20
:101DA000853009F461CF8091E80083FD5DCF80919B
:101DB000E80082FDB4CF8091E80080FFAACF809137
:101DC000F2009091F3002115310519F0883091054A
:101DD00050F041E0089709F040E08091E8008E77EC
:101DE0008093E80096CF44914093F10031962150C2
:101DF00031090196E8CF803809F08ACE8091E80059
:101E0000877F8093E8008091BD018093F10076CEBA
:101E100081117ECE1091C101123008F079CE8091EF
:101E2000E800877F8093E8001093BD010E94190AA3
:101E3000112381F084E08093190542E061EC81E098
:101E40000E94880A42E261EC82E00E94880A809146
:101E500019055ECE8091E30087FDECCF81E0EBCFEA
:101E6000CF93C82F8823A9F08CEF8C0F813A98F478
:101E7000E0EBF1E08191C81709F440C021E0E63BB6
:101E8000F207C1F76C2F8EEA91E00E945F080E9472
:101E9000060CCF91089580E28C0F883068F4C770EB
:101EA00021E030E001C0220FCA95EAF78091BD051C
:101EB000822B8093BD05EBCF8BE58C0F833038F4FC
:101EC0002C2F2452330BC9010E941308E2CFE8E5FE
:101ED000EC0FEB3150F4F0E0EE0FFF1FEB58FE4F2C
:101EE000808191810E943908D4CF83E38C0F8331A4
:101EF00080F661E08C2F0E94BC08CBCF6C2F8EEA5D
:101F000091E00E9479080E94060CBCCF882399F1C9
:101F10009CEF980F913A40F4682F8EEA91E00E946E
:101F200079080E94060C089590E2980F983050F4BA
:101F3000877091E001C0990F8A95EAF7892F0E9476
:101F4000F103EFCF9BE5980F933028F480E090E009
:101F50000E941308089598E5980F9B3128F480E0BB
:101F600090E00E943908089593E3980F933118F494
:101F700060E00E94BC0808951F93CF93DF93182F51
:101F8000EB010E94300F209739F4812F0E94860FB9
:101F9000DF91CF911F9108958FE99FE00197F1F7AD
:101FA00000C000002197EFCF60E070E0893311F4AA
:101FB00060E570E00E94BC0F0895882339F090918D
:101FC000BD05892B8093BD050E94060C08958823CA
:101FD00021F00E94F1030E94060C08950F931F93B5
:101FE000CF93DF93C62FD42F122F8823A9F06093AD
:101FF000B3050E9488089093BA018093B901C77015
:1020000081E001C0880FCA95EAF70E94DD0FDF91D9
:10201000CF911F910F9108958091B305681332C03D
:102020008091B9019091BA010E94AD09883C910557
:1020300048F5CD130CC0812F0E94D40FD77081E0DA
:1020400001C0880FDA95EAF70E94E70FE0CFC7706A
:1020500001E0802F01C0880FCA95EAF70E94E70FC0
:1020600080E28D0F883050F48D2F877001C0000FF3
:102070008A95EAF7802F0E94DD0FDDCF812F0E9425
:10208000D40FC5CFC77081E001C0880FCA95EAF7A9
:10209000DBCFA0E0B0E0EFE4F0E10C94182489017C
:1020A000D42FC52F6B017C010E945707A8016D2F0B
:1020B0007C2F88E090E00E942E2598014D2F5C2F08
:1020C000B601C70100E20E946024622F84E290E022
:1020D0000E941C25CDB7DEB7E8E00C943424809133
:1020E000B905833018F48F5F8093B9052091B50549
:1020F0003091B6054091B7055091B8056091B9058A
:102100007091BA058091BB059091BC050E94491061
:1021100008958091B905882319F081508093B905FD
:102120002091B5053091B6054091B7055091B8059D
:102130006091B9057091BA058091BB059091BC057D
:102140000E94491008956091B5056695669570E006
:102150004BE050E088E091E00E94DE24892B19F4E6
:1021600081E080930B060E94880890934C05809331
:102170004B050895A5E0B0E0E0ECF0E10C941224EA
:102180008091B50580FD0AC0EEECF3E0118210826B
:102190001282339624E0EA3FF207C1F780901305DC
:1021A000909014058114910409F459C080FF57C020
:1021B000A12CB12C66246394712C80910C069301A0
:1021C0000A2C01C0220F0A94EAF78223882309F41B
:1021D0003BC0F401E590F490E114F10409F43FC030
:1021E00045E050E0B701CE0101960E94D5248981D7
:1021F0008F3F51F12A8190E0280F392F311D25366C
:10220000310514F024E630E06901CC0CDD1CC20E6F
:10221000D31E960122533C4F69018C01000F111F00
:10222000080F191F02531C4F0C151D0520F035E037
:10223000E30EF11CD5CF98014D816C818B810E94FA
:10224000C8060D5F1F4FF0CF82E0880E911C9FEFF4
:10225000A91AB90A28E0A216B10409F0AECF64E6C3
:1022600070E08EEC93E00E943A0B2596EEE00C9421
:102270002E24A0E0B0E0EFE3F1E10C941224FC0185
:102280008280648081E08483E1EFF1E09490E0E774
:10229000F2E0E4910091B8050695015810E0000FB6
:1022A000111F012F1127C8EDD1E02EECC22E23E023
:1022B000D22EAA24AA94B12C77247A94E919EE2E6E
:1022C000F12C82E0881530F08091B60588838091EA
:1022D000B7058983611017C01B821A8296014A8153
:1022E000698188810E94C806259683E0C80ED11CAA
:1022F00083E0CC3CD80729F70E94BA10CDB7DEB7EF
:10230000EEE00C942E248B818823E9F081508B839E
:10231000789EC00111246C8170E00E94CE23FB01E5
:10232000FF27EF50FE4F8491E82FE9197E9EC001F0
:102330001124B7010E94CE238091B805689FB00197
:1023400011247A83CBCF0E94C624B5010E94E223D8
:10235000801791070CF0C2CF82E0881588F40E94A4
:10236000C624B5010E94E22388830E94C6242091DE
:10237000B7052695622F70E00E94E223280F29837B
:102380001A828091B805893C20F088EC8C838B837D
:10239000A5CF8431D8F784E1F9CFEF92FF921F9354
:1023A000CF93DF93EC018EECE82E83E0F82E10E063
:1023B0008C8197014091B8056091B705810F0E940B
:1023C000C8061E5F83E0E80EF11C183C89F70E94E6
:1023D000BA109A818C8190FF08C08F5F8C83DF9147
:1023E000CF911F91FF90EF9008958150F7CFA0E01B
:1023F000B0E0EDEFF1E10C941824FC018281DD24C2
:10240000D39480FF02C0DD24DA940EEC13E0C0E028
:10241000D0E0F80111821082128294E0E92EF12CB2
:10242000C12C8091CD038C0D8536D4F164E60E94D9
:10243000C023892F082E000C990B8C179D0791F44F
:102440008091B8058E9DA0018F9D500D112455954A
:1024500047955595479598016091B7058091B605C8
:102460000E94C806CD0CF1E0EF1AF108E114F10466
:10247000C1F621960D5F1F4FC436D10551F60E945B
:10248000BA108091CD0391E0D9120EC0882391F04B
:1024900081508093CD03CDB7DEB7E8E00C943424AF
:1024A00087FFC8CF8C59C6CF90E00196BE010E942D
:1024B000E223EFCF83E6EDCF0F931F93CF93DF930C
:1024C000CEECD3E0FE01118210821282339684E0BA
:1024D000EA3FF807C1F700E010E08091CC03082E36
:1024E000000C990B081719078CF180910701082E31
:1024F000000C990B801791074CF19E014091B80593
:102500006091B7058091B6050E94C8060F5F1F4F06
:1025100023960436110509F70E94BA10809106012E
:102520009091CC03980F9093CC0320910701280F32
:1025300020930701121614F493361CF081958093B2
:102540000601DF91CF911F910F9108951982188292
:102550001A82DCCFAEE0B0E0E0EBF2E10C9418249C
:102560008D879E87AD85BE8514961C91212F30E006
:10257000D9010E94A4259B01AC010E946F256983AB
:102580007A838B839C83E0E2F0E0E11BF109A5E50F
:10259000B0E09B01AC010E946F2569877A878B8729
:1025A0009C879F01DF010E94FF239B01AC010E94D9
:1025B0007A256D837E838F8398879B01AC01898107
:1025C0009A81AB81BC81280F391F4A1F5B1F698527
:1025D0007A858B859C850E948225022F30E00A3205
:1025E000C8F5A901440F551F420F531F5595479534
:1025F000142F10959EECC92E93E0D92EF12C85E571
:10260000E82EE01A8E2DF1FC802F9601412F60916B
:10261000B7050E94C806F39493E0C90ED11CA4E646
:10262000FA12F0CF0E94BA10ED85FE85948181E008
:10263000992319F0903219F48FEF8093050180915E
:102640000501890FAD85BE8514968C932E96E8E022
:102650000C94342485E590E0821B930BAC01440F6D
:10266000551F480F591F57FFC1CF4F5F5F4FBECF58
:10267000A0E0B0E0EEE3F3E10C9418248C01CEEC82
:10268000D3E020E030E0F80194816091B7058091BB
:10269000B605A9014F5F5F4F7A012233310574F40B
:1026A000FE0133966F019E014091B805911101C062
:1026B00040E00E94C8069701E601E5CF9E014091E7
:1026C000B805911140E00E94C806970124363105F3
:1026D00011F02396D8CF0E94BA10F801848190E0BF
:1026E0000196817099278483CDB7DEB7E8E00C941A
:1026F00034249091B50590FF0CC0EEECF3E081839B
:1027000060834283339694E0EA3FF907C1F70E9461
:10271000BA100895A3E0B0E0E0E9F3E10C941E24C0
:102720009091B50590FF0AC09E012F5F3F4F0E9418
:10273000C8064B8169818A810E9479132396E2E061
:102740000C943A24CF93DF93EC01EC81F0E0EF504E
:10275000FE4F4491E5EBF5E0628181810E948A138E
:102760008C818F5F8C83DF91CF910895CF93DF931E
:10277000EC01E5EBF5E0438162818C810E948A13D4
:102780008C818F5F8C83DF91CF910895A3E0B0E0BF
:10279000ECECF3E10C941124F82E762EE42E622E4C
:1027A0009091B50590FF2FC0E92FE695E695AE2FE5
:1027B000B0E0AD5DBE4F8C9180930A069C7F943053
:1027C00031F59E012F5F3F4F8F2D0E94C8064B8130
:1027D00069818A810E947913F092B6057092B705DB
:1027E000E092B805662079F02091B5056091B905B1
:1027F0007091BA053F2D472D5E2D8091BB059091BC
:10280000BC050E9449102396EFE00C942D248230E1
:1028100019F4E090B805E0CF863019F4F090B605D1
:10282000DBCF8930D9F38931B9F6E9518E2F817028
:10283000582EE695F0E0EF50FD4FE4910E2F10E09A
:102840008EECC82E83E0D82EA12CB12C94E6892ED4
:10285000912CC501B4010E94CE238F2D511013C0BD
:10286000860F96014E2D672D0E94C806A00EB11E40
:1028700083E0C80ED11C8AEFC81684E0D80649F759
:102880000E94BA10A9CF861BECCF9091B50590FF9E
:102890003BC08823D1F18A32D0F58F73282F220FC5
:1028A000220F8091B5058370282B2093B5056623F0
:1028B00081F03091B6054091B7055091B80560910F
:1028C000B9057091BA058091BB059091BC050E9435
:1028D00049106091B5056695669570E04BE050E053
:1028E00088E091E00E94DE24892B99F010920B067B
:1028F00081E080934E0520E04091B8056091B705D6
:102900008091B6050E94C613089581E0C7CF89E281
:10291000C5CF0E94A310ECCF8091B5058695869512
:102920008F5F8A3208F081E061E00E9445140895CB
:102930009091B505969596958FEF890F913009F492
:1029400089E261E00E94451408959091B50590FFD9
:1029500009C096959695981728F0961718F40E9436
:102960008C14089561E00E9445140895A0E0B0E041
:10297000ECEBF4E10C9418248C01FC018481882395
:1029800009F4E9C061E0C8010E945706EC01F801B2
:102990008581C334FEE7DF0709F4E2C0A8F4C1343F
:1029A0003EE7D30709F47DC0C2349EE7D90709F496
:1029B00086C0FE01E851FC47E730F10508F0F6C09B
:1029C000EF52FA4D0C94F623C434EEE7DE0709F417
:1029D0008AC0882309F4E8C11092B305CA353CE7E0
:1029E000D30709F48DC208F064C2C1309CE7D9074F
:1029F00009F484C2C330ECE7DE0709F479C2C115DB
:102A0000DC4709F468C2F8018581E080F180882301
:102A100009F47AC2C7010E942306C82F682FC70194
:102A20000E946603B7018C2F0E94F9030E940A05D9
:102A3000D82FC92FF801D580C680C2942FE0C222BA
:102A40008091C4058770882301F1FD2CDD20F1F011
:102A5000892F807F803461F080E28D0F8830A8F06C
:102A6000892F807E803221F4D23078F0CC2069F03A
:102A70008091C60582FF09C082E00E94D90380913F
:102A8000C4058770FF24F3948111F12CEC2FE2959B
:102A9000EF70C03C08F0A3C2F0E0E852FA4D0C948D
:102AA000F623882339F083EE0E94300F8BE20E94D8
:102AB000300F41C08BE20E94860F83EE11C0882345
:102AC00041F080EE0E94300F81EE0E94300F89E2CB
:102AD000EECF89E20E94860F81EE0E94860F80EE83
:102AE0000E94860F28C08823D1F380EE0E94300F09
:102AF0006AEB70E087E00E94BC0F66EB70E086E155
:102B00000E94BC0F62EB70E08AE10E94BC0F6CEB8C
:102B100070E08AE10E94BC0F68EB70E084E00E94E4
:102B2000BC0F6DEB70E086E10E94BC0F65EB70E0BE
:102B300086E10E94BC0F8091C4058770882359F0FC
:102B4000F8018581882339F08091C60582FF03C092
:102B500082E00E94D903CDB7DEB7E8E00C943424BC
:102B6000882329F083EE0E94300F89E1A0CF89E10C
:102B7000A2CF26E241EE61EE0E94EE0FDCCF27E20B
:102B800045EE65EEF9CF26E241EE60EEF5CF27E2A5
:102B900045EE64EEF1CF26E241EE62EEEDCF27E2A4
:102BA00045EE66EEE9CF28E241E0EBCF81110FC0A0
:102BB000C631FCE7DF0709F0F7C08091B40569E290
:102BC000811165E38EEA91E00E9479081BC01092A2
:102BD000B305CE0190578397C0F0C6312CE7D207DA
:102BE00009F0FCCE8091BD058A7A91E0811101C087
:102BF00090E09093B40569E2811165E38EEA91E07B
:102C00000E945F080E94060C96CF84E090E00E942C
:102C100006259093C6058093C505FE01E150F04757
:102C2000E232F10520F4EC51FA4D0C94F623809138
:102C3000C50581608093C5056091C5057091C60585
:102C400084E090E00E943A250E94420C74CF80916B
:102C5000C60588608093C605EFCF8091C505826068
:102C6000E9CF8091C5058460E5CF8091C505886076
:102C7000E1CF8091C6058160EDCF8091C60582606D
:102C8000E9CF8091C5058061D5CF8091C50580626F
:102C9000D1CF8091C5058064CDCF0E94420C809138
:102CA000C5058068C7CF8091C5058C60C3CF809172
:102CB000C6058360CFCF8091C5058E7FBBCF809145
:102CC000C605877FC7CF8091C5058D7FB3CF809123
:102CD000C5058B7FAFCF8091C505877FABCF809136
:102CE000C6058E7FB7CF8091C6058D7FB3CF80910B
:102CF000C5058F7E9FCF8091C5058F7D9BCF80912D
:102D0000C5058F7B97CF0E94420C8091C5058F77B8
:102D100091CF8091C505837F8DCF8091C6058C7F33
:102D200099CF8091C50582FB992790F921E09227E0
:102D300090FB82F990FB83F97DCF8091C605982F97
:102D4000909591708E7F892B90FB81F983CF909124
:102D5000C505892F8F7B96FF80646CCF0E94420C43
:102D60009091C505892F97FB87F9805863CF61E063
:102D70008EE090E00E941C255FCF60E0F9CF90913B
:102D8000C505892F8F7E94FF806154CF9091C50532
:102D9000892F8E7F90FF81604DCF9091C605892F3E
:102DA000877F93FF886056CF8091BD058272FE01B8
:102DB000E052F847E531F10508F025CEEA5FF94D1C
:102DC0000C94F6238091B50580FF19C0282F2E7F23
:102DD0002093B5053091B6054091B7055091B805DF
:102DE0006091B9057091BA058091BB059091BC05C1
:102DF0000E94491010920B060E94BA109CCE81606E
:102E00008093B50561E0869586950E94451493CE22
:102E100048E954E16CE874E10E946C078CCE4CE800
:102E200054E168E974E1F8CF48EE5BE16EED7BE1D7
:102E3000F3CF4EED5BE168EE7BE1EECF4FEF5BE170
:102E400062EF7BE1E9CF42EF5BE16FEF7BE1E4CF43
:102E500049E15CE16CE07CE1DFCF4CE05CE169E101
:102E60007CE1DACF49E850E16FE670E1D5CF4FE67B
:102E700050E169E870E1D0CF61E081E0C6CF65E064
:102E800082E00E94A51457CE68E086E0FACF6EE09B
:102E900089E0F7CF64E18FE0F4CF67E185E1F1CF1E
:102EA00061E088E1B2CF62E289E1EBCF69E284E2DE
:102EB000E8CFCB352CE7D20729F1CC35DC4709F038
:102EC000A2CD8091C60582FB882780F991E08927F1
:102ED0000E94EF0B98CD0E94420C8FEF94E3ECE040
:102EE00081509040E040E1F700C000000E94680B74
:102EF0006FEF7FEF80E090E00E943A250E94690C1E
:102F000081E0E6CF80E0E4CFC7010E949C03C82F98
:102F100089CDFC2FFF70EF2EC03118F0E29490EFB6
:102F2000E922DD20B9F0EE2069F080E28D0F8830D3
:102F300010F0D11109C08091BD058E298093BD0587
:102F40000E94060C8D2F43C08091C7058E29809367
:102F5000C705F6CF8D2F0E94860FEE2009F43FC0E3
:102F600080E28D0F883010F0D11104C08E2D0E94A8
:102F7000F10306C0E0948091C7058E218093C705B8
:102F80000E94060C2CC02C2F2F70E22EC07FC03266
:102F900019F0E29480EFE822DD2349F0D13009F402
:102FA0006BC0DD2009F477C0CC20C9F1CBCF809174
:102FB000C60582FD30C0DD2069F0EE2039F0809139
:102FC000BD058E298093BD050E94060C80E00E94FD
:102FD000300F05C080E00E94860FE110C7CFFF20B0
:102FE000A9F08091C40580FD11C0F8011582869575
:102FF000869586950E944403C8010E94B61480916C
:10300000C4058695869586950E94540360E0C801A4
:103010000E945706A0CDDD2099F0C11004C08E2D6E
:103020000E94DD0FDCCF31E0C312D9CF8091BE0505
:103030009E2D9823E91699F28E298093BE05CFCF55
:10304000C110CDCF8E2D0E94E70F9091BE058E2D21
:103050008923882329F08E2D809589238093BE05AE
:103060008091BF059E2D9823992309F4B8CFE09451
:10307000E822E092BF05B3CFDD2029F085E08C1572
:1030800008F4ADCFCCCF94E09C1508F4A8CF8E2DDA
:103090000E94E70FA4CFCC20D1F3D93349F4EFEF4E
:1030A000F7EE23E0E150F0402040E1F700C00000DF
:1030B0008D2F0E94860F93CF8C2F869586958370D7
:1030C000882369F0813009F08ACF8D2F9C2F93706F
:1030D000D11002C080E090E00E94390880CF8D2F8F
:1030E0009C2F9370D11002C080E090E00E941308E2
:1030F00076CF6D2D8D2F0E94BC0871CF8C2F8370E1
:10310000811144C0D1102FC04D2F42954695477074
:10311000440F440F2D2F2F7030E0042E02C0220FD9
:10312000331F0A94E2F780E090E0D4FF09C08FE0FB
:1031300090E002C0880F991F4A95E2F7809590951C
:10314000C695C695C370C230C1F0C33099F04091A6
:10315000C0055091C105C13059F0822B932B8423B7
:1031600095230E9438030E9406080E942B0337CF44
:10317000242B352B822B932BF4CF822B932B209156
:10318000C0053091C10582279327EBCFDD2091F157
:10319000C0FFE9CF4D2F429546954770440F440F2D
:1031A0002D2F2F7030E0042E02C0220F331F0A94FF
:1031B000E2F780E090E0D4FF09C08FE090E002C029
:1031C000880F991F4A95E2F780959095C695C69508
:1031D000C370C230C1F0C33099F04091C205509124
:1031E000C305C13059F0822B932B842395230E9471
:1031F0003D03B9CF823008F4B6CFCCCF242B352B8A
:10320000822B932BF4CF822B932B2091C2053091EC
:10321000C30582279327EBCFCF70DD2039F08C2FA9
:103220000E9444038D2F0E94DD0F9DCF8D2F0E94A1
:10323000E70F8C2F0E94540396CFD23FA1F178F470
:10324000D03FC1F0D13F09F447C0DD2009F46BC085
:10325000CC2009F465C08D2F0E94300F84CFD33F5E
:1032600049F1D43FA9F1D110F3CFC1106AC08C2F1E
:103270008F71E0CFDD20A1F034E03C1508F473CF6E
:10328000CF7181E090E0FC0102C0EE0FFF1FCA95F4
:10329000E2F78091C2059091C3058E279F27A7CFA3
:1032A000F5E0CF16EBCF8C2F8F71D110C3CF0E94DA
:1032B000440359CF80E090E0DD2009F498CFCF712E
:1032C00081E090E002C0880F991FCA95E2F78FCF86
:1032D0008091C60582FD06C08C2F8F71DD2009F418
:1032E000A9CFE5CFDD2089F0CF718C2F0E94440358
:1032F0008091C60582FF07C028E0C29FC00111244B
:1033000083608093C4058C2FD2CF81E00E94D903C3
:1033100031E03C1508F027CF82E00E94D90323CF8B
:103320008C2F8F71C4CFCC2009F4A1CFD93349F4AD
:103330008FEF97EEE3E081509040E040E1F700C06E
:1033400000008D2F0E94860F0ECF809108068031DD
:1033500078F480910706882359F0E091C9052091FF
:10336000C805309103064091020657E02E1301C0B4
:1033700008956E2F70E05E9FF0011124DF01A653C7
:10338000BA4F14968C911497882361F111968C9101
:103390001197831327C08C91841324C015968C91A8
:1033A000159781111FC012968D919C91A0910406D2
:1033B000B09105068A1B9B0B883C910598F480917F
:1033C00008068F70806180930806E053FA4F808171
:1033D0008F708061808382E096E00E94B6140E9424
:1033E000CF030895FB013196E770C0CFADE0B0E0A8
:1033F000ECEFF9E10C9413248C0186E0F801DE0176
:10340000189601900D928A95E1F7F801E080F58019
:10341000A280B380C48082E0882E86E0982E7090CF
:103420000606711020C0CC20D9F0FF2009F419C184
:10343000C8010E948606882309F413C187E0F801B9
:10344000D40101900D928A95E1F7F1E0CF1206C008
:1034500080910206909103060E9477060E94A519AA
:10346000FF24F39451C0D0900706809104069091F8
:1034700005069501281B390BDD2009F4BAC0283C4C
:10348000310508F090C0CC2059F390910306C1801B
:1034900080910806803108F058C0C91214C090917C
:1034A00002069E1110C0F1104AC08F708061809397
:1034B000080682E096E00E94B61480910806F801A2
:1034C0008683F12C21C0F1103AC040E06C2D8E2D86
:1034D0000E941B0B40E06C2D8E2D0E941B0BF82EC2
:1034E0008111EFCF888599850E947706292F229533
:1034F0002F70903470F49F702230A0F09923B1F0B7
:10350000F8019681903190F48F2D2D96EDE00C947A
:103510002F242A5F2F70223068F0C8010E94B61451
:10352000FD2CF2CF992311F0882371F3805E88304F
:1035300058F3F3CF803F40F3815F8230F9CF809121
:103540000806816080930806BCCFC91207C090911D
:1035500002069E1103C0FF2009F46CC0C8010E943E
:103560008606882309F47DC0FF2009F47AC0809183
:103570000806803278F020910206309103063A83E3
:103580002983BC82AB827D821E828F83CE0101960D
:103590000E94B61487E0F801A2E0B6E001900D9217
:1035A0008A95E1F75BCF80910806803150F482E084
:1035B00096E00E94B61487E0F40111928A95E9F72B
:1035C00080CFCC2009F44CCF2091030691812913A0
:1035D000C5CF909102069E11C1CFF110BFCF868357
:1035E000C8010E94B61487E0F40111928A95E9F7A8
:1035F00037CF283C3105F8F6CC2009F431CFFF2035
:1036000081F1909103068181981321C08091020677
:103610008E111DC08091080680FD10C0803170F0B1
:103620008683807F803F39F08681982F907F905FDE
:103630008F70892B8683C8010E94B61487E0F80139
:10364000A2E0B6E001900D928A95E1F709CFC8019A
:103650000E94860681119ECF80910806816080932A
:103660000806C8010E94B614FBCEABE1B0E0EBE364
:10367000FBE10C941D244E8B5F8B688F798F8A8FB2
:103680009B8F91111092C7051D8A86E0FE017696E8
:10369000DE011F9601900D928A95E1F78B898823B0
:1036A00029F061E0CE010F960E94570687E0FE01E7
:1036B0003F96DE01189601900D928A95E1F7CE01B2
:1036C00008960E94F61981112BC087E0FE013896FA
:1036D000DE01119601900D928A95E1F72091C805BF
:1036E0004091C9058C858823D9F030E0C901019645
:1036F0008770992750E084179507E9F097E0929F2B
:10370000D001939FB00D1124A653BA4FFE013196FC
:1037100001900D929A95E1F78093C8050E94CF031E
:1037200017E08091C9059091C805891312C06B9666
:10373000E3E00C9439240E94420C1092C8051092C8
:10374000C90587E0E2E0F6E0DF011D928A95E9F71E
:10375000E7CF189FC001112486539A4F0E94F61993
:10376000882329F38091C90590E0019687709927F5
:103770008093C905D6CFA6E0B0E0E1ECFBE10C9464
:103780001C240E9488088C01809166059091670531
:103790008017910779F019821A820E948808BC016B
:1037A00049815A8180E090E00E94351B10936705A3
:1037B000009366052696E4E00C943824E5EBF5E0EA
:1037C000818121E043816281885F0E94C613089550
:1037D000E5EBF5E0818121E04381628188500E9420
:1037E000C6130895E5EBF5E0628128E0620F08F466
:1037F0006FEF21E0438181810E94C6130895E5EBBC
:10380000F5E0628128E0621B08F460E021E043817A
:1038100081810E94C6130895E5EBF5E0438121E123
:10382000420F08F44FEF21E0628181810E94C613AC
:103830000895E5EBF5E0438121E1421B08F440E007
:1038400021E0628181810E94C6130895A8E1B0E061
:10385000ECE2FCE10C941024FE01319688E1DF01DA
:103860001D928A95E9F79DE4A92E91E0B92E8F016A
:1038700023E5E22E21E0F22E4F01CC24C394D12C7B
:10388000F50181915F018F3F09F451C0F894E82F51
:10389000E295EF70F0E021A18F70A60102C0440F05
:1038A000551F8A95E2F7CA01922F982B91A392A1F6
:1038B0008095892382A3789400C0E3E5F1E041E09C
:1038C00050E060E070E0412C512C320121912F3FFB
:1038D00009F451C0A22FA295AF70A05EB0E08C9108
:1038E00090E02F7002C0959587952A95E2F7817038
:1038F000811141C0DB01CA01482A592A6A2A7B2A60
:10390000440F551F661F771F81E0E536F807F1F673
:10391000F501319780818F3F11F00E94AE06A0EA39
:10392000AA95F1F7F80140825182628273820C5F9E
:103930001F4FEA14FB0409F0A3CF48E150E0B401A3
:103940008AEF94E00E94EB24892BD1F088E1F40106
:10395000AAEFB4E001900D928A95E1F781E080939F
:10396000B8010E9488089093B7018093B6016896C9
:10397000E0E10C942C2480E090E0A0E0B0E0BCCF2B
:103980008091B801882399F38091B6019091B70195
:103990000E94AD09059758F348E150E06AEF74E0E2
:1039A0008AE195E00E94EB24892B49F088E1EAEF57
:1039B000F4E0AAE1B5E001900D928A95E1F710924A
:1039C000B801D5CFCDB7DEB72C970FB6F894DEBFD0
:1039D0000FBECDBF85B7806885BF85B7806885BFBE
:1039E00084B7877F84BF0FB6F894A8958091600054
:1039F000886180936000109260000FBE80E890E0C4
:103A00000FB6F89480936100909361000FBE8CEA2A
:103A100096E09093AD018093AC010E94690A0E94E8
:103A2000BF0A8091E20084608093E20078948091E4
:103A30001905882399F08091E9001091EC00179501
:103A4000112717958F70182B1092E9008091E800CC
:103A500083FD0E947F0C1F701093E90092E094BDDB
:103A600083E085BD2AEF27BD90936E00E8E5F5E081
:103A700098E0DF011D929A95E9F78093570510E0D1
:103A800060E0812F0E94730761E0812F0E9473071D
:103A90001F5F1330A9F7EFE8F1E03197F1F700C0AD
:103AA000000010E080915705181708F4C0C00DE41D
:103AB00011E083E5E82E81E0F82ED8018D918D018B
:103AC0008F3F11F00E94AE06E016F106B1F703E554
:103AD00011E0F80181918F018F3F11F00E94AE0635
:103AE000F1E005361F07A9F788E1EAE1F5E0DF011B
:103AF000282F1D922A95E9F7EAEFF4E0DF011D92E5
:103B00008A95E9F780E090E00E940625863E9E4F68
:103B100009F466C066EE7EEF80E090E00E943A25F0
:103B200060E082E090E00E941C2581E090E09093AC
:103B3000C1058093C00561E083E090E00E941C25F0
:103B400060E074E184E090E00E943A2560E086E065
:103B500090E00E941C2560E087E090E00E941C2518
:103B600040E050E0BA0188E090E00E942E2560E03D
:103B700084E290E00E941C2560E087E190E00E94D2
:103B80001C2560E08CE090E00E941C2560E08DE048
:103B900090E00E941C2519821A821B821C821D82C1
:103BA0001E821F82188648E050E068E170E0CE0176
:103BB00001960E940C2540E050E0BA0180E290E0BE
:103BC0000E942E2540E050E0BA018FE090E00E9474
:103BD0002E2540E050E0BA0183E190E00E942E25BE
:103BE00082E090E00E94F8248093320584E090E027
:103BF0000E9406259093C6058093C5050E94261C49
:103C0000EFEFF6E721E0E150F0402040E1F700C09F
:103C100000000E94261C80911A0580FF1AC06FEFD9
:103C20007FEF80E090E00E943A250E94680B60E000
:103C3000812F0E949607082F61E0812F0E9496072E
:103C4000E12FF0E0EC5AFA4F880F802B80831F5F42
:103C500029CF83E090E00E94F82490E00E9438038E
:103C60008091C2059091C3050E941C0380911205AA
:103C7000811198C088E090E00E9400256B017C01D2
:103C800084E290E00E94F824282F30E040E050E0E9
:103C900060E070E080E090E000E20E944524F22FB6
:103CA000A32EB42EB52FA62FE72F9701860140E053
:103CB00050E0BA01FC29A12AB22AB32BA42BE52B90
:103CC000862B972BF093B505A092B605B092B70559
:103CD000B093B805A093B905E093BA058093BB05EE
:103CE0009093BC05F43008F04DC025E02093B50555
:103CF00024ED2093B6052FEF2093B70528E12093FC
:103D0000B8051092B90525E034ED4FEF58E160E0B9
:103D10007E2F0E94491088E090E00E9400256B01F0
:103D20007C0184E290E00E94F824282F30E040E0FB
:103D300050E060E070E080E090E000E20E94452406
:103D40005901B42FA52FF62FE72F9701860140E0E8
:103D500050E0BA01AC28B12AB22BA32BF42BE52BEF
:103D6000862B972BA092B505B092B605B093B705F8
:103D7000A093B805F093B905E093BA058093BB050D
:103D80009093BC050E94570710920B068091B505D1
:103D900080FF05C060E0869586950E94451481E00D
:103DA0008093120586EF93E090931405809313059A
:103DB00083E191E09093690580936805CE010196B7
:103DC0008B879C878091190511E0853009F4C8C064
:103DD0000E94261CB3E32B2EB5E03B2EAAE1B5E0F2
:103DE000BA87A987F10101911191219131914D91EA
:103DF0005D916D917D9185E0EB34F80709F4E6C0A3
:103E0000041715072607370771F310E0A985BA854F
:103E1000CD90DD90ED90FD90BA87A987F10141909A
:103E20005190619071901F014C145D046E047F04E9
:103E3000E1F14C245D246E247F2400E0812C912C40
:103E400054018394D301C20188219921AA21BB2165
:103E5000892B8A2B8B2BE1F009831A830E94880817
:103E60009C838B83F1E0FD8391E0B701A60148219B
:103E700059216A217B21452B462B472B09F490E0E1
:103E80009E8349815A816B817C818D810E94351B83
:103E90000F5F880C991CAA1CBB1C023199F6F1011A
:103EA0003497C082D182E282F3821F5F163009F01C
:103EB000ADCF0E94900992C080911905843009F419
:103EC0003AC080E00E942B0310920B0680911705E8
:103ED00081110DC0109317058091B505982F917031
:103EE000909316058E7F8093B5050E94BA101092AC
:103EF000150588E190E0A0E40FB6F894A8958093AA
:103F000060000FBEA093600083B7817F846083BF91
:103F100083B7816083BF7894889583B78E7F83BF92
:103F20000FB6F894A8958091600088618093600036
:103F3000109260000FBE80911805882389F00E94BE
:103F4000261CEAE1F5E081919191A191B191892B33
:103F50008A2B8B2B19F582E395E08E179F0799F733
:103F600080911905853009F4A7CF0E94420C0E9468
:103F700006080E942B0310921705809116058823CE
:103F800051F08091B50581608093B50560E086951C
:103F900086950E9445140E94A3101ACF84E189BD22
:103FA00086E189BD09B400FEFDCF8091D8008F7DE8
:103FB0008093D8008091E00082608093E00080913F
:103FC000E00081FDFCCF0E94420CCACF0417150708
:103FD0002607370709F019CF0E94BB1B80910B06FB
:103FE0008823D9F180910A06E091B505E695E6951A
:103FF000E81BE0934D05823009F050C0F0E0E55F2A
:10400000FB4FE4910E2F10E0E2EAEE2EE3E1FE2EEC
:1040100080914E05882361F010924E050E94880819
:1040200090934C0580934B051092500510924F05CC
:104030000E94880820914B0530914C05821B930B00
:104040008F3F9F4750F4200F311F30934C05209332
:104050004B058BE495E0F7010995809109068823CB
:1040600069F01092090680910B06811107C08091BA
:10407000B50560E0869586950E944514809160059F
:10408000882351F080915A051092600580935B055A
:104090008091580580935905F12CB0C0853109F401
:1040A00046C068F4893059F18F30A9F18630E1F0CB
:1040B00000ED17E077ECE72E76E0F72EA9CF04EFBE
:1040C00011E098E3E92E93E1F92E833209F4A0CFB1
:1040D000843209F437C0883159F708E210E08AEADF
:1040E000E82E82E1F82E94CFF0E0E85FFB4FE491F8
:1040F0000E2F10E066EBE62E63E1F62E89CFE695F3
:10410000F0E0EB5FFB4FE4910E2F10E05DECE52E4D
:1041100051E1F52E7DCFE695F0E0EE5FFB4FE491A7
:104120000E2F10E047EFE42E41E1F42E71CFF0E0C6
:10413000E150FC4FE4910E2F10E03CE5E32E32E11C
:10414000F32E66CF8E2F63E00E94B423E92FF0E0B8
:10415000E450FC4FE4910E2F10E029E3E22E21E120
:10416000F22E56CF61E08F2D0E949607E82E60E078
:104170008F2D0E949607EE0C8E292F2D30E0D9014D
:10418000AC5ABA4FEC919E2F93708917B1F1EE0F94
:10419000EE0FE82BEC93EF70F0E0EB59FE4F2F5A47
:1041A0003A4F8081D9019C91890F8C9384300CF413
:1041B00050C0412F50E0E02FE150FF0BBF01637072
:1041C00077274617570781F0485A5A4F9F2D9F77F8
:1041D000DA0114969C931F5F137010935A05909107
:1041E00058059F5F90935805082E000C990B64E0CA
:1041F00070E00E94E223F9018083F39410915A0544
:1042000000915B0580915705F81608F4ABCF90E05C
:1042100080915B0520915A052817E9F1E82FF0E01D
:10422000E45AFA4F908197FB222720F99F778F5FFE
:10423000837080935B05809159058F5F809359054A
:104240009923D1F0913001F581E5211119C082E562
:1042500017C08D3F4CF6412F50E0E02FE150FF0B8F
:10426000BF01637077274617570709F4BDCF485A37
:104270005A4F9F2D9068ACCF8AEA211101C089EA7C
:104280000E94D40F91E0C4CF9230E1F78FE4211166
:10429000F7CF80E5F5CF91110E94900986E0EDEA15
:1042A000F5E0AB85BC8501900D928A95E1F7F09021
:1042B000AE050091AF051091B005D090B105E0902A
:1042C000B2051092AF051092B0051092B105109290
:1042D000B205812F802B882379F08091630590911E
:1042E00064050E94AD099C018091AB0581114CC011
:1042F0002B30310508F04EC08E2D8D29882379F0A2
:1043000080916105909162050E94AD099C018091A8
:10431000AA05811177C02B30310508F079C0809152
:10432000AE05F81216C08091AF05882311F08013F6
:1043300010C09091B005992311F019130AC0209173
:10434000B205211106C02091B105211102C0892BAF
:1043500081110E94940886E0EB85FC85ADEAB5E00A
:1043600001900D928A95E1F70E940608182F80911E
:104370006505181709F426CD109365050E9490096C
:10438000812F0E942B031ECD2531310508F4B4CFB7
:104390008F3F19F08F5F8093AB05002359F00E9487
:1043A000C1079FEF10160CF491E0899F802D112416
:1043B0008093AF05112359F00E94C10791E01116B7
:1043C0000CF09FEF899F802D11248093B005809180
:1043D000AF05882309F490CFC090B005CC2009F434
:1043E0008BCF0E94B307811101C081E08093AF059C
:1043F0008C2D0E94B307882319F08093B0057CCFE1
:1044000081E0FBCF2135310508F489CF8F3F19F0CA
:104410008F5F8093AA05DD2059F00E94E1079FEF8E
:104420001D140CF491E0899F802D11248093B10517
:10443000EE2059F00E94E10791E01E140CF09FEF6E
:10444000899F802D11248093B2058091B105882326
:1044500009F465CFE090B205EE2009F460CF0E9428
:10446000B307811101C081E08093B1058E2D0E94B8
:10447000B307882319F08093B20551CF81E0FBCFB9
:104480001F921FB61F9211248F939F93AF93BF93D8
:1044900080911505811113C08091D0019091D101B7
:1044A000A091D201B091D3014196A11DB11D80937D
:1044B000D0019093D101A093D201B093D301BF91C9
:1044C000AF919F918F911F901FBE1F901895789468
:1044D0001F921FB61F9211248F939F93AF93BF9388
:1044E0008091D0019091D101A091D201B091D301DE
:1044F0000196A11DB11D8093D0019093D101A0938D
:10450000D201B093D301BF91AF919F918F911F9032
:104510001FBE1F9018951F920F920FB60F92112475
:104520000BB60F922F933F934F935F936F937F93AD
:104530008F939F93AF93BF93EF93FF938091E1008D
:1045400082FF09C08091E20082FF05C08091E100F6
:104550008B7F8093E1008091DA0080FF24C08091FE
:10456000D80080FF20C08091DA008E7F8093DA002F
:104570008091D90080FF9DC084E189BD86E189BD1D
:1045800009B400FEFDCF81E0809319058091BE0142
:10459000811109C00E94690A0E94BF0A8091E2004D
:1045A00084608093E2008091E10080FF17C08091D9
:1045B000E20080FF13C08091E2008E7F8093E200D2
:1045C0008091E20080618093E2008091D800806257
:1045D0008093D80019BC85E0809319058091E10093
:1045E00084FF29C08091E20084FF25C084E189BD59
:1045F00086E189BD09B400FEFDCF8091D8008F7D92
:104600008093D8008091E1008F7E8093E1008091BB
:10461000E2008F7E8093E2008091E20081608093CF
:10462000E2008091BD01882309F449C084E08093B1
:104630001905809119058091E10083FF27C08091C1
:10464000E20083FF23C08091E100877F8093E10037
:1046500082E0809319051092BD018091E1008E7F68
:104660008093E1008091E2008E7F8093E200809150
:10467000E20080618093E20042E060E080E00E941E
:10468000880A8091F00088608093F000FF91EF919C
:10469000BF91AF919F918F917F916F915F914F915A
:1046A0003F912F910F900BBE0F900FBE0F901F9058
:1046B000189519BC109219051092BE0174CF809103
:1046C000E30087FF02C083E0B2CF81E0B0CF1F924A
:1046D0000F920FB60F9211240BB60F92FF920F9309
:1046E0001F932F933F934F935F936F937F938F937A
:1046F0009F93AF93BF93CF93DF93EF93FF9309EE15
:1047000010E0F8018081C091EC00C795CC27C795D7
:104710008F70FC2EF82A1082C0EFD0E08881877F4E
:10472000888378940E947F0CF801108288818860C9
:104730008883CF2DCF70C083FF91EF91DF91CF9110
:10474000BF91AF919F918F917F916F915F914F91A9
:104750003F912F911F910F91FF900F900BBE0F90E3
:104760000FBE0F901F901895991B79E004C0991FF8
:10477000961708F0961B881F7A95C9F780950895BB
:1047800087FB082E062687FD819567FD61950E94AF
:10479000B4230EF4919507FC81950895AA1BBB1BC9
:1047A00051E107C0AA1FBB1FA617B70710F0A61B31
:1047B000B70B881F991F5A95A9F780959095BC0152
:1047C000CD01089597FB072E16F4009407D077FDCE
:1047D00009D00E94CE2307FC05D03EF49095819528
:1047E0009F4F0895709561957F4F0895EE0FFF1FBD
:1047F0000024001C0BBE0790F691E02D09940E9446
:10480000A425332312F48A1B9B0B0C9409240E94C9
:10481000A425B7FF0895821B930B08952F923F9212
:104820004F925F926F927F928F929F92AF92BF92C0
:10483000CF92DF92EF92FF920F931F93CF93DF936C
:10484000CDB7DEB7CA1BDB0B0FB6F894DEBF0FBEC9
:10485000CDBF09942A88398848885F846E847D8416
:104860008C849B84AA84B984C884DF80EE80FD8018
:104870000C811B81AA81B981CE0FD11D0FB6F8948E
:10488000DEBF0FBECDBFED010895002E083090F0C1
:10489000982F872F762F652F542F432F322F2227C3
:1048A0000850F4CF220F331F441F551F661F771F78
:1048B000881F991F0A95B2F7002D089597FD10944F
:1048C000002E083098F00850232F342F452F562FF4
:1048D000672F782F892F912DF4CF15949795879571
:1048E0007795679557954795379527950A95AAF730
:1048F0001124002D08958F929F92AF92BF92CF9274
:10490000DF92EF92FF92CF93DF93EC016881798180
:104910008A819B81611571058105910521F464E20D
:1049200079ED8BE597E02DE133EF41E050E00E9417
:10493000502549015A019B01AC01A7EAB1E40E944C
:104940006F256B017C01ACEEB4EFA50194010E94D0
:104950007D25DC01CB018C0D9D1DAE1DBF1DB7FF5C
:1049600003C00197A109B04888839983AA83BB83B8
:104970009F77DF91CF91FF90EF90DF90CF90BF9026
:10498000AF909F908F9008950C947B2480E091E0ED
:104990000C947B24B0E0A0E080930001909301018F
:1049A000A0930201B09303010895FB01DC0102C052
:1049B00005900D9241505040D8F70895FC014150A8
:1049C000504030F001900616D1F73197CF0108958D
:1049D000882799270895FB01DC0104C08D9101907F
:1049E000801921F441505040C8F7881B990B089555
:1049F000F999FECF92BD81BDF89A992780B50895A7
:104A0000A6E1B0E044E050E00C944225A8E1B0E01B
:104A100042E050E00C944225DC01A40FB51F415048
:104A2000504048F0CB01840F951F2E910E941D2508
:104A300041505040D0F70895262FF999FECF92BDEE
:104A400081BDF89A019700B4021639F01FBA20BD53
:104A50000FB6F894FA9AF99A0FBE08950396272F85
:104A60000E941D250E941C25252F0E941D25242FF4
:104A70000C941D250196272F0E941D250C941C25A2
:104A8000DC01CB01FC01F999FECF06C0F2BDE1BD0E
:104A9000F89A319600B40D9241505040B8F70895FD
:104AA000052E97FB1EF400940E94672557FD07D042
:104AB0000E94822507FC03D04EF40C946725509584
:104AC0004095309521953F4F4F4F5F4F08959095FA
:104AD0008095709561957F4F8F4F9F4F08950E94ED
:104AE000A425A59F900DB49F900DA49F800D911DAE
:104AF00011240895B7FF0C946F250E946F25821B27
:104B0000930B0895A1E21A2EAA1BBB1BFD010DC039
:104B1000AA1FBB1FEE1FFF1FA217B307E407F5076D
:104B200020F0A21BB30BE40BF50B661F771F881F49
:104B3000991F1A9469F760957095809590959B01DF
:104B4000AC01BD01CF010895A29FB001B39FC00188
:104B5000A39F700D811D1124911DB29F700D811DA9
:104B60001124911D0895F894FFCFE508E808EE0898
:104B700003090309030903090309030903090309D5
:104B8000F108F608FA080009110917091B095C0D5C
:104B9000820D880D820D880DDB0DFD0D880DFB0E3D
:104BA000080FC315C715B915BF15CB15CF15D315EC
:104BB00089178917C317C3175C187918EF17EF17F0
:104BC0007E180C191D191D195B16C61663162D16B5
:104BD0003116671635166B1677164116BF16451631
:104BE0007B1649167F16A7164D168316AE1653165A
:104BF0008916911639166F163D16731657168D16AF
:104C00009D16B716BD1627165F16CD16E2160817A5
:104C10000F17141719171E17231728172D173217D8
:104C200037173C173F17441747174A174D175017A8
:064C300053179B155617F7
:104C3600010000000101010201191A1B1C1D1E1FA3
:104C4600202122BC09CA0BBF09E10BE80B91939501
:104C56009294960001020202020606060909090953
:104C660009090F0F0F0F0F0F151515181919191917
:104C7600191919191919232424242424246766656B
:104C860064636200010203040506073031323334DF
:104C9600353637C4C500FF0100010000FFFF0000E4
:104CA600010001FF00E200E900EA00B500B600B726
:104CB60000CD008301CC008A0192019401210223D8
:104CC6000224022502260227022A02B300B4006F3C
:0C4CD6000070009F01CB019F02A00200B3
:00000001FF
